{
  "_format": "hh-sol-artifact-1",
  "contractName": "Token",
  "sourceName": "src/contracts/Token.sol",
  "abi": [
    {
      "inputs": [
        {
          "internalType": "address",
          "name": "_owner",
          "type": "address"
        }
      ],
      "stateMutability": "nonpayable",
      "type": "constructor"
    },
    {
      "inputs": [
        {
          "internalType": "uint256",
          "name": "_decimals",
          "type": "uint256"
        },
        {
          "internalType": "uint256",
          "name": "_totalSupply",
          "type": "uint256"
        }
      ],
      "name": "DecimalsAndTotal",
      "outputs": [],
      "stateMutability": "nonpayable",
      "type": "function"
    },
    {
      "inputs": [
        {
          "internalType": "string",
          "name": "_name",
          "type": "string"
        },
        {
          "internalType": "string",
          "name": "_symbol",
          "type": "string"
        }
      ],
      "name": "NameAndSymbol",
      "outputs": [],
      "stateMutability": "nonpayable",
      "type": "function"
    },
    {
      "inputs": [
        {
          "internalType": "address",
          "name": "account",
          "type": "address"
        }
      ],
      "name": "balanceOf",
      "outputs": [
        {
          "internalType": "uint256",
          "name": "",
          "type": "uint256"
        }
      ],
      "stateMutability": "view",
      "type": "function"
    },
    {
      "inputs": [
        {
          "internalType": "address",
          "name": "",
          "type": "address"
        }
      ],
      "name": "balances",
      "outputs": [
        {
          "internalType": "uint256",
          "name": "",
          "type": "uint256"
        }
      ],
      "stateMutability": "view",
      "type": "function"
    },
    {
      "inputs": [],
      "name": "decimals",
      "outputs": [
        {
          "internalType": "uint256",
          "name": "",
          "type": "uint256"
        }
      ],
      "stateMutability": "view",
      "type": "function"
    },
    {
      "inputs": [],
      "name": "name",
      "outputs": [
        {
          "internalType": "string",
          "name": "",
          "type": "string"
        }
      ],
      "stateMutability": "view",
      "type": "function"
    },
    {
      "inputs": [],
      "name": "owner",
      "outputs": [
        {
          "internalType": "address",
          "name": "",
          "type": "address"
        }
      ],
      "stateMutability": "view",
      "type": "function"
    },
    {
      "inputs": [],
      "name": "symbol",
      "outputs": [
        {
          "internalType": "string",
          "name": "",
          "type": "string"
        }
      ],
      "stateMutability": "view",
      "type": "function"
    },
    {
      "inputs": [],
      "name": "totalSupply",
      "outputs": [
        {
          "internalType": "uint256",
          "name": "",
          "type": "uint256"
        }
      ],
      "stateMutability": "view",
      "type": "function"
    }
  ],
  "bytecode": "0x60c060405260066080819052650c4a6e8c2e6d60d31b60a090815261002791600091906100b3565b5060408051808201909152600480825263084a6a8960e31b6020909201918252610053916001916100b3565b50601260025534801561006557600080fd5b506040516107b63803806107b68339810160408190526100849161014c565b5060035433600081815260056020526040902091909155600480546001600160a01b03191690911790556101b5565b8280546100bf9061017a565b90600052602060002090601f0160209004810192826100e15760008555610127565b82601f106100fa57805160ff1916838001178555610127565b82800160010185558215610127579182015b8281111561012757825182559160200191906001019061010c565b50610133929150610137565b5090565b5b808211156101335760008155600101610138565b60006020828403121561015d578081fd5b81516001600160a01b0381168114610173578182fd5b9392505050565b60028104600182168061018e57607f821691505b602082108114156101af57634e487b7160e01b600052602260045260246000fd5b50919050565b6105f2806101c46000396000f3fe608060405234801561001057600080fd5b50600436106100935760003560e01c80633724a809116100665780633724a809146100e657806370a08231146100fb5780638da5cb5b1461010e57806395d89b4114610123578063afe960831461012b57610093565b806306fdde031461009857806318160ddd146100b657806327e235e3146100cb578063313ce567146100de575b600080fd5b6100a061013e565b6040516100ad919061050f565b60405180910390f35b6100be6101cc565b6040516100ad9190610562565b6100be6100d936600461044b565b6101d2565b6100be6101e4565b6100f96100f43660046104da565b6101ea565b005b6100be61010936600461044b565b610233565b61011661024e565b6040516100ad91906104fb565b6100a061025d565b6100f9610139366004610479565b61026a565b6000805461014b9061056b565b80601f01602080910402602001604051908101604052809291908181526020018280546101779061056b565b80156101c45780601f10610199576101008083540402835291602001916101c4565b820191906000526020600020905b8154815290600101906020018083116101a757829003601f168201915b505050505081565b60035481565b60056020526000908152604090205481565b60025481565b6102286040518060400160405280601c81526020017f546f6b656e20446563696d616c73202620546f74616c537570706c79000000008152506102ca565b600291909155600355565b6001600160a01b031660009081526005602052604090205490565b6004546001600160a01b031681565b6001805461014b9061056b565b61029e60405180604001604052806013815260200172151bdad95b8813985b5948098814de5b589bdb606a1b8152506102ca565b81516102b1906000906020850190610331565b5080516102c5906001906020840190610331565b505050565b61030d816040516024016102de919061050f565b60408051601f198184030181529190526020810180516001600160e01b031663104c13eb60e21b179052610310565b50565b80516a636f6e736f6c652e6c6f67602083016000808483855afa5050505050565b82805461033d9061056b565b90600052602060002090601f01602090048101928261035f57600085556103a5565b82601f1061037857805160ff19168380011785556103a5565b828001600101855582156103a5579182015b828111156103a557825182559160200191906001019061038a565b506103b19291506103b5565b5090565b5b808211156103b157600081556001016103b6565b600082601f8301126103da578081fd5b813567ffffffffffffffff808211156103f5576103f56105a6565b604051601f8301601f191681016020018281118282101715610419576104196105a6565b604052828152848301602001861015610430578384fd5b82602086016020830137918201602001929092529392505050565b60006020828403121561045c578081fd5b81356001600160a01b0381168114610472578182fd5b9392505050565b6000806040838503121561048b578081fd5b823567ffffffffffffffff808211156104a2578283fd5b6104ae868387016103ca565b935060208501359150808211156104c3578283fd5b506104d0858286016103ca565b9150509250929050565b600080604083850312156104ec578182fd5b50508035926020909101359150565b6001600160a01b0391909116815260200190565b6000602080835283518082850152825b8181101561053b5785810183015185820160400152820161051f565b8181111561054c5783604083870101525b50601f01601f1916929092016040019392505050565b90815260200190565b60028104600182168061057f57607f821691505b602082108114156105a057634e487b7160e01b600052602260045260246000fd5b50919050565b634e487b7160e01b600052604160045260246000fdfea2646970667358221220dd7884e6927c958379b5948dfe983e0776744c6a732bc486febf51bc0185ddf864736f6c63430008000033",
  "linkReferences": {},
  "deployedLinkReferences": {}
}