{
  "_format": "hh-sol-artifact-1",
  "contractName": "Token",
  "sourceName": "src/contracts/Token.sol",
  "abi": [
    {
      "inputs": [
        {
          "internalType": "address",
          "name": "_owner",
          "type": "address"
        }
      ],
      "stateMutability": "nonpayable",
      "type": "constructor"
    },
    {
      "inputs": [
        {
          "internalType": "uint256",
          "name": "_decimals",
          "type": "uint256"
        },
        {
          "internalType": "uint256",
          "name": "_totalSupply",
          "type": "uint256"
        }
      ],
      "name": "DecimalsAndTotal",
      "outputs": [],
      "stateMutability": "nonpayable",
      "type": "function"
    },
    {
      "inputs": [
        {
          "internalType": "string",
          "name": "_name",
          "type": "string"
        },
        {
          "internalType": "string",
          "name": "_symbol",
          "type": "string"
        }
      ],
      "name": "NameAndSymbol",
      "outputs": [],
      "stateMutability": "nonpayable",
      "type": "function"
    },
    {
      "inputs": [
        {
          "internalType": "address",
          "name": "",
          "type": "address"
        }
      ],
      "name": "balanceOf",
      "outputs": [
        {
          "internalType": "uint256",
          "name": "",
          "type": "uint256"
        }
      ],
      "stateMutability": "view",
      "type": "function"
    },
    {
      "inputs": [],
      "name": "decimals",
      "outputs": [
        {
          "internalType": "uint256",
          "name": "",
          "type": "uint256"
        }
      ],
      "stateMutability": "view",
      "type": "function"
    },
    {
      "inputs": [],
      "name": "name",
      "outputs": [
        {
          "internalType": "string",
          "name": "",
          "type": "string"
        }
      ],
      "stateMutability": "view",
      "type": "function"
    },
    {
      "inputs": [],
      "name": "owner",
      "outputs": [
        {
          "internalType": "address",
          "name": "",
          "type": "address"
        }
      ],
      "stateMutability": "view",
      "type": "function"
    },
    {
      "inputs": [],
      "name": "symbol",
      "outputs": [
        {
          "internalType": "string",
          "name": "",
          "type": "string"
        }
      ],
      "stateMutability": "view",
      "type": "function"
    },
    {
      "inputs": [],
      "name": "totalSupply",
      "outputs": [
        {
          "internalType": "uint256",
          "name": "",
          "type": "uint256"
        }
      ],
      "stateMutability": "view",
      "type": "function"
    }
  ],
  "bytecode": "0x60c060405260066080819052650c4a6e8c2e6d60d31b60a0908152620000299160009190620000ef565b5060408051808201909152600480825263084a6a8960e31b60209092019182526200005791600191620000ef565b5060126002553480156200006a57600080fd5b5060405162000938380380620009388339810160408190526200008d9162000195565b6002546200009d90600a62000212565b620000ac90620186a0620002fa565b600381905533600081815260056020526040902091909155600480546001600160a01b03939093166001600160a01b03199384169092179092161790556200036f565b828054620000fd906200031c565b90600052602060002090601f0160209004810192826200012157600085556200016c565b82601f106200013c57805160ff19168380011785556200016c565b828001600101855582156200016c579182015b828111156200016c5782518255916020019190600101906200014f565b506200017a9291506200017e565b5090565b5b808211156200017a57600081556001016200017f565b600060208284031215620001a7578081fd5b81516001600160a01b0381168114620001be578182fd5b9392505050565b80825b6001808611620001d9575062000209565b818704821115620001ee57620001ee62000359565b80861615620001fc57918102915b9490941c938002620001c8565b94509492505050565b6000620001be60001984846000826200022e57506001620001be565b816200023d57506000620001be565b8160018114620002565760028114620002615762000295565b6001915050620001be565b60ff84111562000275576200027562000359565b6001841b9150848211156200028e576200028e62000359565b50620001be565b5060208310610133831016604e8410600b8410161715620002cd575081810a83811115620002c757620002c762000359565b620001be565b620002dc8484846001620001c5565b808604821115620002f157620002f162000359565b02949350505050565b600081600019048311821515161562000317576200031762000359565b500290565b6002810460018216806200033157607f821691505b602082108114156200035357634e487b7160e01b600052602260045260246000fd5b50919050565b634e487b7160e01b600052601160045260246000fd5b6105b9806200037f6000396000f3fe608060405234801561001057600080fd5b50600436106100885760003560e01c806370a082311161005b57806370a08231146100dd5780638da5cb5b146100f057806395d89b4114610105578063afe960831461010d57610088565b806306fdde031461008d57806318160ddd146100ab578063313ce567146100c05780633724a809146100c8575b600080fd5b610095610120565b6040516100a291906104d6565b60405180910390f35b6100b36101ae565b6040516100a29190610529565b6100b36101b4565b6100db6100d63660046104a1565b6101ba565b005b6100b36100eb366004610412565b610203565b6100f8610215565b6040516100a291906104c2565b610095610224565b6100db61011b366004610440565b610231565b6000805461012d90610532565b80601f016020809104026020016040519081016040528092919081815260200182805461015990610532565b80156101a65780601f1061017b576101008083540402835291602001916101a6565b820191906000526020600020905b81548152906001019060200180831161018957829003601f168201915b505050505081565b60035481565b60025481565b6101f86040518060400160405280601c81526020017f546f6b656e20446563696d616c73202620546f74616c537570706c7900000000815250610291565b600291909155600355565b60056020526000908152604090205481565b6004546001600160a01b031681565b6001805461012d90610532565b61026560405180604001604052806013815260200172151bdad95b8813985b5948098814de5b589bdb606a1b815250610291565b81516102789060009060208501906102f8565b50805161028c9060019060208401906102f8565b505050565b6102d4816040516024016102a591906104d6565b60408051601f198184030181529190526020810180516001600160e01b031663104c13eb60e21b1790526102d7565b50565b80516a636f6e736f6c652e6c6f67602083016000808483855afa5050505050565b82805461030490610532565b90600052602060002090601f016020900481019282610326576000855561036c565b82601f1061033f57805160ff191683800117855561036c565b8280016001018555821561036c579182015b8281111561036c578251825591602001919060010190610351565b5061037892915061037c565b5090565b5b80821115610378576000815560010161037d565b600082601f8301126103a1578081fd5b813567ffffffffffffffff808211156103bc576103bc61056d565b604051601f8301601f1916810160200182811182821017156103e0576103e061056d565b6040528281528483016020018610156103f7578384fd5b82602086016020830137918201602001929092529392505050565b600060208284031215610423578081fd5b81356001600160a01b0381168114610439578182fd5b9392505050565b60008060408385031215610452578081fd5b823567ffffffffffffffff80821115610469578283fd5b61047586838701610391565b9350602085013591508082111561048a578283fd5b5061049785828601610391565b9150509250929050565b600080604083850312156104b3578182fd5b50508035926020909101359150565b6001600160a01b0391909116815260200190565b6000602080835283518082850152825b81811015610502578581018301518582016040015282016104e6565b818111156105135783604083870101525b50601f01601f1916929092016040019392505050565b90815260200190565b60028104600182168061054657607f821691505b6020821081141561056757634e487b7160e01b600052602260045260246000fd5b50919050565b634e487b7160e01b600052604160045260246000fdfea26469706673582212201be21d0772aac55dfe93a21143b918a8466cf0f1fcf07020d9d5cc280a601e8364736f6c63430008000033",
  "linkReferences": {},
  "deployedLinkReferences": {}
}