{
  "_format": "hh-sol-artifact-1",
  "contractName": "Token",
  "sourceName": "contracts/Token.sol",
  "abi": [
    {
      "inputs": [],
      "stateMutability": "nonpayable",
      "type": "constructor"
    },
    {
      "inputs": [
        {
          "internalType": "uint256",
          "name": "_decimals",
          "type": "uint256"
        },
        {
          "internalType": "uint256",
          "name": "_totalSupply",
          "type": "uint256"
        }
      ],
      "name": "DecimalsAndTotal",
      "outputs": [],
      "stateMutability": "nonpayable",
      "type": "function"
    },
    {
      "inputs": [
        {
          "internalType": "string",
          "name": "_name",
          "type": "string"
        },
        {
          "internalType": "string",
          "name": "_symbol",
          "type": "string"
        }
      ],
      "name": "NameAndSymbol",
      "outputs": [],
      "stateMutability": "nonpayable",
      "type": "function"
    },
    {
      "inputs": [
        {
          "internalType": "address",
          "name": "",
          "type": "address"
        }
      ],
      "name": "balanceOf",
      "outputs": [
        {
          "internalType": "uint256",
          "name": "",
          "type": "uint256"
        }
      ],
      "stateMutability": "view",
      "type": "function"
    },
    {
      "inputs": [],
      "name": "decimals",
      "outputs": [
        {
          "internalType": "uint256",
          "name": "",
          "type": "uint256"
        }
      ],
      "stateMutability": "view",
      "type": "function"
    },
    {
      "inputs": [],
      "name": "name",
      "outputs": [
        {
          "internalType": "string",
          "name": "",
          "type": "string"
        }
      ],
      "stateMutability": "view",
      "type": "function"
    },
    {
      "inputs": [],
      "name": "owner",
      "outputs": [
        {
          "internalType": "address",
          "name": "",
          "type": "address"
        }
      ],
      "stateMutability": "view",
      "type": "function"
    },
    {
      "inputs": [],
      "name": "symbol",
      "outputs": [
        {
          "internalType": "string",
          "name": "",
          "type": "string"
        }
      ],
      "stateMutability": "view",
      "type": "function"
    },
    {
      "inputs": [],
      "name": "totalSupply",
      "outputs": [
        {
          "internalType": "uint256",
          "name": "",
          "type": "uint256"
        }
      ],
      "stateMutability": "view",
      "type": "function"
    }
  ],
  "bytecode": "0x60806040526040518060400160405280600681526020017f6253746173680000000000000000000000000000000000000000000000000000815250600090805190602001906200005192919062000167565b506040518060400160405280600481526020017f4253544800000000000000000000000000000000000000000000000000000000815250600190805190602001906200009f92919062000167565b506012600255348015620000b257600080fd5b50600254600a620000c4919062000272565b620186a0620000d49190620003af565b600381905550600354600560003373ffffffffffffffffffffffffffffffffffffffff1673ffffffffffffffffffffffffffffffffffffffff1681526020019081526020016000208190555033600460006101000a81548173ffffffffffffffffffffffffffffffffffffffff021916908373ffffffffffffffffffffffffffffffffffffffff160217905550620004bb565b82805462000175906200041a565b90600052602060002090601f016020900481019282620001995760008555620001e5565b82601f10620001b457805160ff1916838001178555620001e5565b82800160010185558215620001e5579182015b82811115620001e4578251825591602001919060010190620001c7565b5b509050620001f49190620001f8565b5090565b5b8082111562000213576000816000905550600101620001f9565b5090565b6000808291508390505b6001851115620002695780860481111562000241576200024062000450565b5b6001851615620002515780820291505b80810290506200026185620004ae565b945062000221565b94509492505050565b60006200027f8262000410565b91506200028c8362000410565b9250620002bb7fffffffffffffffffffffffffffffffffffffffffffffffffffffffffffffffff8484620002c3565b905092915050565b600082620002d55760019050620003a8565b81620002e55760009050620003a8565b8160018114620002fe576002811462000309576200033f565b6001915050620003a8565b60ff8411156200031e576200031d62000450565b5b8360020a91508482111562000338576200033762000450565b5b50620003a8565b5060208310610133831016604e8410600b8410161715620003795782820a90508381111562000373576200037262000450565b5b620003a8565b62000388848484600162000217565b92509050818404811115620003a257620003a162000450565b5b81810290505b9392505050565b6000620003bc8262000410565b9150620003c98362000410565b9250817fffffffffffffffffffffffffffffffffffffffffffffffffffffffffffffffff048311821515161562000405576200040462000450565b5b828202905092915050565b6000819050919050565b600060028204905060018216806200043357607f821691505b602082108114156200044a57620004496200047f565b5b50919050565b7f4e487b7100000000000000000000000000000000000000000000000000000000600052601160045260246000fd5b7f4e487b7100000000000000000000000000000000000000000000000000000000600052602260045260246000fd5b60008160011c9050919050565b61092880620004cb6000396000f3fe608060405234801561001057600080fd5b50600436106100885760003560e01c806370a082311161005b57806370a08231146101035780638da5cb5b1461013357806395d89b4114610151578063afe960831461016f57610088565b806306fdde031461008d57806318160ddd146100ab578063313ce567146100c95780633724a809146100e7575b600080fd5b61009561018b565b6040516100a291906106eb565b60405180910390f35b6100b3610219565b6040516100c0919061070d565b60405180910390f35b6100d161021f565b6040516100de919061070d565b60405180910390f35b61010160048036038101906100fc919061063d565b610225565b005b61011d600480360381019061011891906105a8565b610275565b60405161012a919061070d565b60405180910390f35b61013b61028d565b60405161014891906106d0565b60405180910390f35b6101596102b3565b60405161016691906106eb565b60405180910390f35b610189600480360381019061018491906105d1565b610341565b005b6000805461019890610823565b80601f01602080910402602001604051908101604052809291908181526020018280546101c490610823565b80156102115780601f106101e657610100808354040283529160200191610211565b820191906000526020600020905b8154815290600101906020018083116101f457829003601f168201915b505050505081565b60035481565b60025481565b6102636040518060400160405280601c81526020017f546f6b656e20446563696d616c73202620546f74616c537570706c79000000008152506103b1565b81600281905550806003819055505050565b60056020528060005260406000206000915090505481565b600460009054906101000a900473ffffffffffffffffffffffffffffffffffffffff1681565b600180546102c090610823565b80601f01602080910402602001604051908101604052809291908181526020018280546102ec90610823565b80156103395780601f1061030e57610100808354040283529160200191610339565b820191906000526020600020905b81548152906001019060200180831161031c57829003601f168201915b505050505081565b61037f6040518060400160405280601381526020017f546f6b656e204e616d6520262053796d626f6c000000000000000000000000008152506103b1565b8160009080519060200190610395929190610473565b5080600190805190602001906103ac929190610473565b505050565b610447816040516024016103c591906106eb565b6040516020818303038152906040527f41304fac000000000000000000000000000000000000000000000000000000007bffffffffffffffffffffffffffffffffffffffffffffffffffffffff19166020820180517bffffffffffffffffffffffffffffffffffffffffffffffffffffffff838183161783525050505061044a565b50565b60008151905060006a636f6e736f6c652e6c6f679050602083016000808483855afa5050505050565b82805461047f90610823565b90600052602060002090601f0160209004810192826104a157600085556104e8565b82601f106104ba57805160ff19168380011785556104e8565b828001600101855582156104e8579182015b828111156104e75782518255916020019190600101906104cc565b5b5090506104f591906104f9565b5090565b5b808211156105125760008160009055506001016104fa565b5090565b600061052961052484610759565b610728565b90508281526020810184848401111561054157600080fd5b61054c8482856107e1565b509392505050565b600081359050610563816108c4565b92915050565b600082601f83011261057a57600080fd5b813561058a848260208601610516565b91505092915050565b6000813590506105a2816108db565b92915050565b6000602082840312156105ba57600080fd5b60006105c884828501610554565b91505092915050565b600080604083850312156105e457600080fd5b600083013567ffffffffffffffff8111156105fe57600080fd5b61060a85828601610569565b925050602083013567ffffffffffffffff81111561062757600080fd5b61063385828601610569565b9150509250929050565b6000806040838503121561065057600080fd5b600061065e85828601610593565b925050602061066f85828601610593565b9150509250929050565b610682816107a5565b82525050565b600061069382610789565b61069d8185610794565b93506106ad8185602086016107f0565b6106b6816108b3565b840191505092915050565b6106ca816107d7565b82525050565b60006020820190506106e56000830184610679565b92915050565b600060208201905081810360008301526107058184610688565b905092915050565b600060208201905061072260008301846106c1565b92915050565b6000604051905081810181811067ffffffffffffffff8211171561074f5761074e610884565b5b8060405250919050565b600067ffffffffffffffff82111561077457610773610884565b5b601f19601f8301169050602081019050919050565b600081519050919050565b600082825260208201905092915050565b60006107b0826107b7565b9050919050565b600073ffffffffffffffffffffffffffffffffffffffff82169050919050565b6000819050919050565b82818337600083830152505050565b60005b8381101561080e5780820151818401526020810190506107f3565b8381111561081d576000848401525b50505050565b6000600282049050600182168061083b57607f821691505b6020821081141561084f5761084e610855565b5b50919050565b7f4e487b7100000000000000000000000000000000000000000000000000000000600052602260045260246000fd5b7f4e487b7100000000000000000000000000000000000000000000000000000000600052604160045260246000fd5b6000601f19601f8301169050919050565b6108cd816107a5565b81146108d857600080fd5b50565b6108e4816107d7565b81146108ef57600080fd5b5056fea26469706673582212204c3ee30161a9bc77a79531e410d7f96c7fd9f2bc525f7548c7c5f2a9bb2660a564736f6c63430008000033",
  "linkReferences": {},
  "deployedLinkReferences": {}
}